{
  "transactions": [
    {
      "hash": "0x86adff08f32875f15c6a4ec2e20ac434cf9bd3f7d8895d85f46a133c35e4347d",
      "transactionType": "CREATE",
      "contractName": "TradingTournament",
      "contractAddress": "0xbeee3763d92ede4fb83d57e42231b085855d6e8a",
      "function": null,
      "arguments": null,
      "transaction": {
        "from": "0xd06da0c205e15c6b6dc64f02bcca7e820146dd2c",
        "gas": "0x2313e4",
        "value": "0x0",
        "input": "0x608060405234801561001057600080fd5b5061003b7fa49807205ce4d355092ef5a8a18f56e8913cf4a201fbe287825b095693c217753361006c565b506100667f0dff324f61b0a9f17a8a8306493b247c1ac4be64978ea7e693de84bea4a967bd3361006c565b50610118565b6000828152602081815260408083206001600160a01b038516845290915281205460ff1661010e576000838152602081815260408083206001600160a01b03861684529091529020805460ff191660011790556100c63390565b6001600160a01b0316826001600160a01b0316847f2f8788117e7eff1d82e926ec794901d17c78024a50270940304540a733656f0d60405160405180910390a4506001610112565b5060005b92915050565b611e10806101276000396000f3fe6080604052600436106101855760003560e01c8063987fd680116100d1578063c634b78e1161008a578063d709815411610064578063d709815414610493578063e374b097146104b3578063e7153c83146104d3578063ecccc6da1461050a57600080fd5b8063c634b78e14610433578063d115cac614610453578063d547741f1461047357600080fd5b8063987fd6801461036c5780639a19c7b01461038e578063a217fddf146103ae578063a41b051c146103c3578063ab1205e9146103e3578063ba1424c51461041357600080fd5b80632dbef8981161013e578063386453581161011857806338645358146102f557806375b238fc146103155780638ed75a2f1461033757806391d148541461034c57600080fd5b80632dbef898146102935780632f2ff15d146102b557806336568abe146102d557600080fd5b806301ffc9a7146101915780630418945a146101c65780631601c5a9146101e857806317b747d614610208578063248a9ca314610235578063267a79881461027357600080fd5b3661018c57005b600080fd5b34801561019d57600080fd5b506101b16101ac3660046116ae565b61052c565b60405190151581526020015b60405180910390f35b3480156101d257600080fd5b506101e66101e1366004611704565b610563565b005b3480156101f457600080fd5b506101e6610203366004611704565b610601565b34801561021457600080fd5b50610228610223366004611704565b610636565b6040516101bd9190611721565b34801561024157600080fd5b50610265610250366004611764565b60009081526020819052604090206001015490565b6040519081526020016101bd565b34801561027f57600080fd5b506101e661028e366004611704565b6106a2565b34801561029f57600080fd5b50610265600080516020611d9b83398151915281565b3480156102c157600080fd5b506101e66102d036600461177d565b6106d2565b3480156102e157600080fd5b506101e66102f036600461177d565b6106fd565b34801561030157600080fd5b506101e6610310366004611764565b610730565b34801561032157600080fd5b50610265600080516020611dbb83398151915281565b34801561034357600080fd5b50600154610265565b34801561035857600080fd5b506101b161036736600461177d565b61084a565b34801561037857600080fd5b50610381610873565b6040516101bd91906117ad565b34801561039a57600080fd5b506101e66103a9366004611704565b6108d5565b3480156103ba57600080fd5b50610265600081565b3480156103cf57600080fd5b506101b16103de366004611704565b610905565b3480156103ef57600080fd5b506102656103fe366004611764565b60009081526003602052604090206007015490565b34801561041f57600080fd5b506101e661042e366004611804565b610964565b34801561043f57600080fd5b506101e661044e366004611704565b610bb0565b34801561045f57600080fd5b506101e661046e366004611764565b610be0565b34801561047f57600080fd5b506101e661048e36600461177d565b610e3e565b34801561049f57600080fd5b506101e66104ae366004611764565b610e63565b3480156104bf57600080fd5b506101e66104ce36600461177d565b611027565b3480156104df57600080fd5b506104f36104ee366004611764565b6110c6565b6040516101bd9b9a99989796959493929190611940565b34801561051657600080fd5b5061051f6112b8565b6040516101bd9190611a4f565b60006001600160e01b03198216637965db0b60e01b148061055d57506301ffc9a760e01b6001600160e01b03198316145b92915050565b600080516020611dbb83398151915261057b8161156b565b600280546001810182556000919091527f405787fa12a823e0f2b7631cc41b3ba8828b3321ca811111fa75cd3aa3bb5ace0180546001600160a01b0319166001600160a01b0384169081179091556040519081527f3db297c09c19972ba6a701ff373ab97e21ff1e4992e863c7abe44e9b2fed0847906020015b60405180910390a15050565b600080516020611dbb8339815191526106198161156b565b610631600080516020611d9b83398151915283611578565b505050565b6001600160a01b03811660009081526004602090815260409182902080548351818402810184019094528084526060939283018282801561069657602002820191906000526020600020905b815481526020019060010190808311610682575b50505050509050919050565b600080516020611dbb8339815191526106ba8161156b565b610631600080516020611d9b833981519152836115eb565b6000828152602081905260409020600101546106ed8161156b565b6106f783836115eb565b50505050565b6001600160a01b03811633146107265760405163334bd91960e11b815260040160405180910390fd5b6106318282611578565b600080516020611d9b8339815191526107488161156b565b6000828152600360205260408120905b60078201548110156107e857336001600160a01b031682600701828154811061078357610783611b76565b60009182526020909120600290910201546001600160a01b0316036107e0578160070181815481106107b7576107b7611b76565b6000918252602082206001600290920201018054916107d583611ba2565b919050555050505050565b600101610758565b5060405162461bcd60e51b815260206004820152602760248201527f596f7520617265206e6f74206120706c6179657220696e207468697320746f756044820152661c9b985b595b9d60ca1b60648201526084015b60405180910390fd5b5050565b6000918252602082815260408084206001600160a01b0393909316845291905290205460ff1690565b606060028054806020026020016040519081016040528092919081815260200182805480156108cb57602002820191906000526020600020905b81546001600160a01b031681526001909101906020018083116108ad575b5050505050905090565b600080516020611dbb8339815191526108ed8161156b565b610631600080516020611dbb83398151915283611578565b6000805b60025481101561095b57826001600160a01b03166002828154811061093057610930611b76565b6000918252602090912001546001600160a01b0316036109535750600192915050565b600101610909565b50600092915050565b600080516020611dbb83398151915261097c8161156b565b61098582610905565b6109ca5760405162461bcd60e51b815260206004820152601660248201527514dd18589b1958dbda5b881b9bdd08185b1b1bddd95960521b604482015260640161083d565b428411610a195760405162461bcd60e51b815260206004820181905260248201527f53746172742074696d65206d75737420626520696e2074686520667574757265604482015260640161083d565b828410610a735760405162461bcd60e51b815260206004820152602260248201527f53746172742074696d65206d757374206265206265666f726520656e642074696044820152616d6560f01b606482015260840161083d565b84600103610adb5760405162461bcd60e51b815260206004820152602f60248201527f596f752063616e7420637265617465206120746f75726e616d656e742077697460448201526e341037b7363c901890383630bcb2b960891b606482015260840161083d565b60018054906000610aeb83611ba2565b9091555050600180546000818152600360205260409020908155908101610b128a82611c3d565b5060028101889055600381018790556004810186905560058101859055600681018490556009810180546001600160a01b0319166001600160a01b0385161790556001546040517f669f39ab213e57b6713284e071fe725a689c7a3e8f1a9ee32f2c0f30d132509d91610b92918c908c908c908c908c908c908c90611cfc565b60405180910390a1610ba5600154610be0565b505050505050505050565b600080516020611dbb833981519152610bc88161156b565b610631600080516020611dbb833981519152836115eb565b600081815260036020526040902060068101544210610c385760405162461bcd60e51b8152602060048201526014602482015273151bdd5c9b985b595b9d081a185cc8195b99195960621b604482015260640161083d565b6004810154600782015410610c845760405162461bcd60e51b8152602060048201526012602482015271151bdd5c9b985b595b9d081a5cc8199d5b1b60721b604482015260640161083d565b33610cc25760405162461bcd60e51b815260206004820152600e60248201526d24b73b30b634b21039b2b73232b960911b604482015260640161083d565b60005b33600090815260046020526040902054811015610d6b57336000908152600460205260409020805484919083908110610d0057610d00611b76565b906000526020600020015403610d635760405162461bcd60e51b815260206004820152602260248201527f596f752061726520616c726561647920696e207468697320746f75726e616d656044820152611b9d60f21b606482015260840161083d565b600101610cc5565b506040805180820190915233815260006020808301828152600785018054600180820183559185529284209451600293840290950180546001600160a01b0319166001600160a01b03909616959095178555905193019290925590820154600a8301805491929091610dde908490611d52565b90915550503360008181526004602090815260408083208054600181018255908452928290209092018590558151858152908101929092527f87969bc7faf902221a147b95ceba76e011c5efb0339a0a8ee7a2bb82d9cfbbd691016105f5565b600082815260208190526040902060010154610e598161156b565b6106f78383611578565b600081815260036020526040902060088101546001600160a01b03163314610ec65760405162461bcd60e51b81526020600482015260166024820152752cb7ba9030b932903737ba103a3432903bb4b73732b960511b604482015260640161083d565b600b81015460ff1615610f135760405162461bcd60e51b8152602060048201526015602482015274141c9a5e9948185b1c9958591e4818db185a5b5959605a1b604482015260640161083d565b600a810154600b8201805460ff19166001179055600982015460405163a9059cbb60e01b8152336004820152602481018390526001600160a01b039091169063a9059cbb906044016020604051808303816000875af1158015610f7a573d6000803e3d6000fd5b505050506040513d601f19601f82011682018060405250810190610f9e9190611d65565b610fe25760405162461bcd60e51b8152602060048201526015602482015274141c9a5e99481d1c985b9cd9995c8819985a5b1959605a1b604482015260640161083d565b604080518481523360208201529081018290527f7ed5face07afb2b0e99df53523951350d2a3d4f5d105a0dd2110703efe3995379060600160405180910390a1505050565b600080516020611dbb83398151915261103f8161156b565b6000838152600360205260409020600681015442116110a05760405162461bcd60e51b815260206004820152601b60248201527f546f75726e616d656e74206973207374696c6c206f6e676f696e670000000000604482015260640161083d565b60080180546001600160a01b0319166001600160a01b0393909316929092179091555050565b6000606060008060008060006060600080600080600360008e815260200190815260200160002090506000816007018054905067ffffffffffffffff811115611111576111116117ee565b60405190808252806020026020018201604052801561113a578160200160208202803683370190505b50905060005b60078301548110156111b25782600701818154811061116157611161611b76565b600091825260209091206002909102015482516001600160a01b039091169083908390811061119257611192611b76565b6001600160a01b0390921660209283029190910190910152600101611140565b5081600001548260010183600201548460030154856004015486600501548760060154878960080160009054906101000a90046001600160a01b03168a600a01548b600b0160009054906101000a900460ff1689805461121190611bbb565b80601f016020809104026020016040519081016040528092919081815260200182805461123d90611bbb565b801561128a5780601f1061125f5761010080835404028352916020019161128a565b820191906000526020600020905b81548152906001019060200180831161126d57829003601f168201915b505050505099509c509c509c509c509c509c509c509c509c509c509c50505091939597999b90929496989a50565b6060600060015467ffffffffffffffff8111156112d7576112d76117ee565b60405190808252806020026020018201604052801561138057816020015b61136d604051806101800160405280600081526020016060815260200160008152602001600081526020016000815260200160008152602001600081526020016060815260200160006001600160a01b0316815260200160006001600160a01b03168152602001600081526020016000151581525090565b8152602001906001900390816112f55790505b50905060015b6001548111611565576003600082815260200190815260200160002060405180610180016040529081600082015481526020016001820180546113c890611bbb565b80601f01602080910402602001604051908101604052809291908181526020018280546113f490611bbb565b80156114415780601f1061141657610100808354040283529160200191611441565b820191906000526020600020905b81548152906001019060200180831161142457829003601f168201915b50505050508152602001600282015481526020016003820154815260200160048201548152602001600582015481526020016006820154815260200160078201805480602002602001604051908101604052809291908181526020016000905b828210156114e9576000848152602090819020604080518082019091526002850290910180546001600160a01b031682526001908101548284015290835290920191016114a1565b5050509082525060088201546001600160a01b0390811660208301526009830154166040820152600a8201546060820152600b9091015460ff16151560809091015282611537600184611d87565b8151811061154757611547611b76565b6020026020010181905250808061155d90611ba2565b915050611386565b50919050565b6115758133611675565b50565b6000611584838361084a565b156115e3576000838152602081815260408083206001600160a01b0386168085529252808320805460ff1916905551339286917ff6391f5c32d9c69d2a47ea670b442974b53935d1edc7fd64eb21e047a839171b9190a450600161055d565b50600061055d565b60006115f7838361084a565b6115e3576000838152602081815260408083206001600160a01b03861684529091529020805460ff1916600117905561162d3390565b6001600160a01b0316826001600160a01b0316847f2f8788117e7eff1d82e926ec794901d17c78024a50270940304540a733656f0d60405160405180910390a450600161055d565b61167f828261084a565b6108465760405163e2517d3f60e01b81526001600160a01b03821660048201526024810183905260440161083d565b6000602082840312156116c057600080fd5b81356001600160e01b0319811681146116d857600080fd5b9392505050565b6001600160a01b038116811461157557600080fd5b80356116ff816116df565b919050565b60006020828403121561171657600080fd5b81356116d8816116df565b602080825282518282018190526000918401906040840190835b8181101561175957835183526020938401939092019160010161173b565b509095945050505050565b60006020828403121561177657600080fd5b5035919050565b6000806040838503121561179057600080fd5b8235915060208301356117a2816116df565b809150509250929050565b602080825282518282018190526000918401906040840190835b818110156117595783516001600160a01b03168352602093840193909201916001016117c7565b634e487b7160e01b600052604160045260246000fd5b600080600080600080600060e0888a03121561181f57600080fd5b873567ffffffffffffffff81111561183657600080fd5b8801601f81018a1361184757600080fd5b803567ffffffffffffffff811115611861576118616117ee565b604051601f8201601f19908116603f0116810167ffffffffffffffff81118282101715611890576118906117ee565b6040528181528282016020018c10156118a857600080fd5b8160208401602083013760006020928201830152985089013596505060408801359450606088013593506080880135925060a088013591506118ec60c089016116f4565b905092959891949750929550565b6000815180845260005b8181101561192057602081850181015186830182015201611904565b506000602082860101526020601f19601f83011685010191505092915050565b8b81526101606020820152600061195b61016083018d6118fa565b8b60408401528a60608401528960808401528860a08401528760c084015282810360e084015280875180835260208301915060208901925060005b818110156119bd5783516001600160a01b0316835260209384019390920191600101611996565b50506001600160a01b03871661010085015291506119d89050565b836101208301526119ee61014083018415159052565b9c9b505050505050505050505050565b600081518084526020840193506020830160005b82811015611a4557815180516001600160a01b031687526020908101518188015260409096019590910190600101611a12565b5093949350505050565b6000602082016020835280845180835260408501915060408160051b86010192506020860160005b82811015611b6a57603f1987860301845281518051865260208101516101806020880152611aa96101808801826118fa565b905060408201516040880152606082015160608801526080820151608088015260a082015160a088015260c082015160c088015260e082015187820360e0890152611af482826119fe565b915050610100820151611b136101008901826001600160a01b03169052565b50610120820151611b306101208901826001600160a01b03169052565b506101408201516101408801526101608201519150611b5461016088018315159052565b9550506020938401939190910190600101611a77565b50929695505050505050565b634e487b7160e01b600052603260045260246000fd5b634e487b7160e01b600052601160045260246000fd5b600060018201611bb457611bb4611b8c565b5060010190565b600181811c90821680611bcf57607f821691505b60208210810361156557634e487b7160e01b600052602260045260246000fd5b601f82111561063157806000526020600020601f840160051c81016020851015611c165750805b601f840160051c820191505b81811015611c365760008155600101611c22565b5050505050565b815167ffffffffffffffff811115611c5757611c576117ee565b611c6b81611c658454611bbb565b84611bef565b6020601f821160018114611c9f5760008315611c875750848201515b600019600385901b1c1916600184901b178455611c36565b600084815260208120601f198516915b82811015611ccf5787850151825560209485019460019092019101611caf565b5084821015611ced5786840151600019600387901b60f8161c191681555b50505050600190811b01905550565b88815261010060208201526000611d1761010083018a6118fa565b6040830198909852506060810195909552608085019390935260a084019190915260c08301526001600160a01b031660e09091015292915050565b8082018082111561055d5761055d611b8c565b600060208284031215611d7757600080fd5b815180151581146116d857600080fd5b8181038181111561055d5761055d611b8c56fe0dff324f61b0a9f17a8a8306493b247c1ac4be64978ea7e693de84bea4a967bda49807205ce4d355092ef5a8a18f56e8913cf4a201fbe287825b095693c21775a2646970667358221220d331f724a6200ae16885856840944b5719a0b7a5b62cfad7263d878bad8da5e164736f6c634300081a0033",
        "nonce": "0x1",
        "chainId": "0xaa36a7"
      },
      "additionalContracts": [],
      "isFixedGasLimit": false
    },
    {
      "hash": "0xaa92e7485c5a57cfa4055f3720b74e05b5df1ca0587ccc8122e6d7078fc7b1c3",
      "transactionType": "CREATE",
      "contractName": "USDidy",
      "contractAddress": "0x612c46712a6411d16a34be988c6865124c4169c1",
      "function": null,
      "arguments": [
        "100000"
      ],
      "transaction": {
        "from": "0xd06da0c205e15c6b6dc64f02bcca7e820146dd2c",
        "gas": "0xafe45",
        "value": "0x0",
        "input": "0x608060405234801561001057600080fd5b50604051610afd380380610afd83398101604081905261002f91610211565b6040518060400160405280600681526020016555534469647960d01b815250604051806040016040528060048152602001631554d11160e21b815250816003908161007a91906102c9565b50600461008782826102c9565b5050506100a23382620f424061009d919061039d565b6100a8565b506103cd565b6001600160a01b0382166100d75760405163ec442f0560e01b8152600060048201526024015b60405180910390fd5b6100e3600083836100e7565b5050565b6001600160a01b03831661011257806002600082825461010791906103ba565b909155506101849050565b6001600160a01b038316600090815260208190526040902054818110156101655760405163391434e360e21b81526001600160a01b038516600482015260248101829052604481018390526064016100ce565b6001600160a01b03841660009081526020819052604090209082900390555b6001600160a01b0382166101a0576002805482900390556101bf565b6001600160a01b03821660009081526020819052604090208054820190555b816001600160a01b0316836001600160a01b03167fddf252ad1be2c89b69c2b068fc378daa952ba7f163c4a11628f55a4df523b3ef8360405161020491815260200190565b60405180910390a3505050565b60006020828403121561022357600080fd5b5051919050565b634e487b7160e01b600052604160045260246000fd5b600181811c9082168061025457607f821691505b60208210810361027457634e487b7160e01b600052602260045260246000fd5b50919050565b601f8211156102c457806000526020600020601f840160051c810160208510156102a15750805b601f840160051c820191505b818110156102c157600081556001016102ad565b50505b505050565b81516001600160401b038111156102e2576102e261022a565b6102f6816102f08454610240565b8461027a565b6020601f82116001811461032a57600083156103125750848201515b600019600385901b1c1916600184901b1784556102c1565b600084815260208120601f198516915b8281101561035a578785015182556020948501946001909201910161033a565b50848210156103785786840151600019600387901b60f8161c191681555b50505050600190811b01905550565b634e487b7160e01b600052601160045260246000fd5b80820281158282048414176103b4576103b4610387565b92915050565b808201808211156103b4576103b4610387565b610721806103dc6000396000f3fe608060405234801561001057600080fd5b50600436106100935760003560e01c8063313ce56711610066578063313ce567146100fe57806370a082311461010d57806395d89b4114610136578063a9059cbb1461013e578063dd62ed3e1461015157600080fd5b806306fdde0314610098578063095ea7b3146100b657806318160ddd146100d957806323b872dd146100eb575b600080fd5b6100a061018a565b6040516100ad919061056a565b60405180910390f35b6100c96100c43660046105d4565b61021c565b60405190151581526020016100ad565b6002545b6040519081526020016100ad565b6100c96100f93660046105fe565b610236565b604051601281526020016100ad565b6100dd61011b36600461063b565b6001600160a01b031660009081526020819052604090205490565b6100a061025a565b6100c961014c3660046105d4565b610269565b6100dd61015f36600461065d565b6001600160a01b03918216600090815260016020908152604080832093909416825291909152205490565b60606003805461019990610690565b80601f01602080910402602001604051908101604052809291908181526020018280546101c590610690565b80156102125780601f106101e757610100808354040283529160200191610212565b820191906000526020600020905b8154815290600101906020018083116101f557829003601f168201915b5050505050905090565b60003361022a818585610277565b60019150505b92915050565b600033610244858285610289565b61024f85858561030c565b506001949350505050565b60606004805461019990610690565b60003361022a81858561030c565b610284838383600161036b565b505050565b6001600160a01b03838116600090815260016020908152604080832093861683529290522054600019811461030657818110156102f757604051637dc7a0d960e11b81526001600160a01b038416600482015260248101829052604481018390526064015b60405180910390fd5b6103068484848403600061036b565b50505050565b6001600160a01b03831661033657604051634b637e8f60e11b8152600060048201526024016102ee565b6001600160a01b0382166103605760405163ec442f0560e01b8152600060048201526024016102ee565b610284838383610440565b6001600160a01b0384166103955760405163e602df0560e01b8152600060048201526024016102ee565b6001600160a01b0383166103bf57604051634a1406b160e11b8152600060048201526024016102ee565b6001600160a01b038085166000908152600160209081526040808320938716835292905220829055801561030657826001600160a01b0316846001600160a01b03167f8c5be1e5ebec7d5bd14f71427d1e84f3dd0314c0f7b2291e5b200ac8c7c3b9258460405161043291815260200190565b60405180910390a350505050565b6001600160a01b03831661046b57806002600082825461046091906106ca565b909155506104dd9050565b6001600160a01b038316600090815260208190526040902054818110156104be5760405163391434e360e21b81526001600160a01b038516600482015260248101829052604481018390526064016102ee565b6001600160a01b03841660009081526020819052604090209082900390555b6001600160a01b0382166104f957600280548290039055610518565b6001600160a01b03821660009081526020819052604090208054820190555b816001600160a01b0316836001600160a01b03167fddf252ad1be2c89b69c2b068fc378daa952ba7f163c4a11628f55a4df523b3ef8360405161055d91815260200190565b60405180910390a3505050565b602081526000825180602084015260005b81811015610598576020818601810151604086840101520161057b565b506000604082850101526040601f19601f83011684010191505092915050565b80356001600160a01b03811681146105cf57600080fd5b919050565b600080604083850312156105e757600080fd5b6105f0836105b8565b946020939093013593505050565b60008060006060848603121561061357600080fd5b61061c846105b8565b925061062a602085016105b8565b929592945050506040919091013590565b60006020828403121561064d57600080fd5b610656826105b8565b9392505050565b6000806040838503121561067057600080fd5b610679836105b8565b9150610687602084016105b8565b90509250929050565b600181811c908216806106a457607f821691505b6020821081036106c457634e487b7160e01b600052602260045260246000fd5b50919050565b8082018082111561023057634e487b7160e01b600052601160045260246000fdfea264697066735822122063a9396389e5da03958da166a48633907e6788fae1507f3c323129ad8245678c64736f6c634300081a003300000000000000000000000000000000000000000000000000000000000186a0",
        "nonce": "0x2",
        "chainId": "0xaa36a7"
      },
      "additionalContracts": [],
      "isFixedGasLimit": false
    },
    {
      "hash": "0x5e04d6fcdb68d91d4fefdd1b0475b75c48001f7e712582640337439aeb1f38b0",
      "transactionType": "CALL",
      "contractName": "TradingTournament",
      "contractAddress": "0xbeee3763d92ede4fb83d57e42231b085855d6e8a",
      "function": "addStablecoin(address)",
      "arguments": [
        "0x612C46712a6411d16A34BE988c6865124C4169c1"
      ],
      "transaction": {
        "from": "0xd06da0c205e15c6b6dc64f02bcca7e820146dd2c",
        "to": "0xbeee3763d92ede4fb83d57e42231b085855d6e8a",
        "gas": "0x1773e",
        "value": "0x0",
        "input": "0x0418945a000000000000000000000000612c46712a6411d16a34be988c6865124c4169c1",
        "nonce": "0x3",
        "chainId": "0xaa36a7"
      },
      "additionalContracts": [],
      "isFixedGasLimit": false
    },
    {
      "hash": "0xf935085c48787c97299659f9dae41b395e3df9f2e50ec5151b86c2ef07e3e0d7",
      "transactionType": "CALL",
      "contractName": "TradingTournament",
      "contractAddress": "0xbeee3763d92ede4fb83d57e42231b085855d6e8a",
      "function": "addStablecoin(address)",
      "arguments": [
        "0x612C46712a6411d16A34BE988c6865124C4169c1"
      ],
      "transaction": {
        "from": "0xd06da0c205e15c6b6dc64f02bcca7e820146dd2c",
        "to": "0xbeee3763d92ede4fb83d57e42231b085855d6e8a",
        "gas": "0x11afb",
        "value": "0x0",
        "input": "0x0418945a000000000000000000000000612c46712a6411d16a34be988c6865124c4169c1",
        "nonce": "0x4",
        "chainId": "0xaa36a7"
      },
      "additionalContracts": [],
      "isFixedGasLimit": false
    },
    {
      "hash": "0x3f21927dc7b833334ea7f613bcfbd8f9e666560212a38b5c95b6c889341ec71a",
      "transactionType": "CALL",
      "contractName": "TradingTournament",
      "contractAddress": "0xbeee3763d92ede4fb83d57e42231b085855d6e8a",
      "function": "createTournament(string,uint256,uint256,uint256,uint256,uint256,address)",
      "arguments": [
        "\"Enzo cup #1\"",
        "100000000000000000000",
        "111000000000000000000",
        "10",
        "1731782250",
        "1732127820",
        "0x612C46712a6411d16A34BE988c6865124C4169c1"
      ],
      "transaction": {
        "from": "0xd06da0c205e15c6b6dc64f02bcca7e820146dd2c",
        "to": "0xbeee3763d92ede4fb83d57e42231b085855d6e8a",
        "gas": "0x75fe5",
        "value": "0x0",
        "input": "0xba1424c500000000000000000000000000000000000000000000000000000000000000e00000000000000000000000000000000000000000000000056bc75e2d63100000000000000000000000000000000000000000000000000006046f37e5945c0000000000000000000000000000000000000000000000000000000000000000000a000000000000000000000000000000000000000000000000000000006738e66a00000000000000000000000000000000000000000000000000000000673e2c4c000000000000000000000000612c46712a6411d16a34be988c6865124c4169c1000000000000000000000000000000000000000000000000000000000000000b456e7a6f20637570202331000000000000000000000000000000000000000000",
        "nonce": "0x5",
        "chainId": "0xaa36a7"
      },
      "additionalContracts": [],
      "isFixedGasLimit": false
    },
    {
      "hash": "0x2080c65fd86bd501456723a6a84b126ffa13a27d74c6713be5fe44040d3204ec",
      "transactionType": "CALL",
      "contractName": "TradingTournament",
      "contractAddress": "0xbeee3763d92ede4fb83d57e42231b085855d6e8a",
      "function": "createTournament(string,uint256,uint256,uint256,uint256,uint256,address)",
      "arguments": [
        "\"Enzo cup #2\"",
        "200000000000000000000",
        "222000000000000000000",
        "2",
        "1731800220",
        "1732041420",
        "0x612C46712a6411d16A34BE988c6865124C4169c1"
      ],
      "transaction": {
        "from": "0xd06da0c205e15c6b6dc64f02bcca7e820146dd2c",
        "to": "0xbeee3763d92ede4fb83d57e42231b085855d6e8a",
        "gas": "0x6b559",
        "value": "0x0",
        "input": "0xba1424c500000000000000000000000000000000000000000000000000000000000000e000000000000000000000000000000000000000000000000ad78ebc5ac620000000000000000000000000000000000000000000000000000c08de6fcb28b8000000000000000000000000000000000000000000000000000000000000000000020000000000000000000000000000000000000000000000000000000067392c9c00000000000000000000000000000000000000000000000000000000673cdacc000000000000000000000000612c46712a6411d16a34be988c6865124c4169c1000000000000000000000000000000000000000000000000000000000000000b456e7a6f20637570202332000000000000000000000000000000000000000000",
        "nonce": "0x6",
        "chainId": "0xaa36a7"
      },
      "additionalContracts": [],
      "isFixedGasLimit": false
    },
    {
      "hash": "0x8351b6f31e70b63265d8900b6f77d0724e99e30b6a0a5fd0ac1834e30dbeb469",
      "transactionType": "CALL",
      "contractName": "TradingTournament",
      "contractAddress": "0xbeee3763d92ede4fb83d57e42231b085855d6e8a",
      "function": "createTournament(string,uint256,uint256,uint256,uint256,uint256,address)",
      "arguments": [
        "\"Enzo cup #3\"",
        "300000000000000000000",
        "333000000000000000000",
        "3",
        "1731868620",
        "1731955020",
        "0x612C46712a6411d16A34BE988c6865124C4169c1"
      ],
      "transaction": {
        "from": "0xd06da0c205e15c6b6dc64f02bcca7e820146dd2c",
        "to": "0xbeee3763d92ede4fb83d57e42231b085855d6e8a",
        "gas": "0x6c354",
        "value": "0x0",
        "input": "0xba1424c500000000000000000000000000000000000000000000000000000000000000e000000000000000000000000000000000000000000000001043561a88293000000000000000000000000000000000000000000000000000120d4da7b0bd140000000000000000000000000000000000000000000000000000000000000000000300000000000000000000000000000000000000000000000000000000673a37cc00000000000000000000000000000000000000000000000000000000673b894c000000000000000000000000612c46712a6411d16a34be988c6865124c4169c1000000000000000000000000000000000000000000000000000000000000000b456e7a6f20637570202333000000000000000000000000000000000000000000",
        "nonce": "0x7",
        "chainId": "0xaa36a7"
      },
      "additionalContracts": [],
      "isFixedGasLimit": false
    }
  ],
  "receipts": [
    {
      "status": "0x1",
      "cumulativeGasUsed": "0x8f763a",
      "logs": [
        {
          "address": "0xbeee3763d92ede4fb83d57e42231b085855d6e8a",
          "topics": [
            "0x2f8788117e7eff1d82e926ec794901d17c78024a50270940304540a733656f0d",
            "0xa49807205ce4d355092ef5a8a18f56e8913cf4a201fbe287825b095693c21775",
            "0x000000000000000000000000d06da0c205e15c6b6dc64f02bcca7e820146dd2c",
            "0x000000000000000000000000d06da0c205e15c6b6dc64f02bcca7e820146dd2c"
          ],
          "data": "0x",
          "blockHash": "0x729408bc8ac9f3332e5cb630a366444269f6042a9d5d11e820aa760550c301a5",
          "blockNumber": "0x6c3142",
          "transactionHash": "0x86adff08f32875f15c6a4ec2e20ac434cf9bd3f7d8895d85f46a133c35e4347d",
          "transactionIndex": "0x28",
          "logIndex": "0x3e",
          "removed": false
        },
        {
          "address": "0xbeee3763d92ede4fb83d57e42231b085855d6e8a",
          "topics": [
            "0x2f8788117e7eff1d82e926ec794901d17c78024a50270940304540a733656f0d",
            "0x0dff324f61b0a9f17a8a8306493b247c1ac4be64978ea7e693de84bea4a967bd",
            "0x000000000000000000000000d06da0c205e15c6b6dc64f02bcca7e820146dd2c",
            "0x000000000000000000000000d06da0c205e15c6b6dc64f02bcca7e820146dd2c"
          ],
          "data": "0x",
          "blockHash": "0x729408bc8ac9f3332e5cb630a366444269f6042a9d5d11e820aa760550c301a5",
          "blockNumber": "0x6c3142",
          "transactionHash": "0x86adff08f32875f15c6a4ec2e20ac434cf9bd3f7d8895d85f46a133c35e4347d",
          "transactionIndex": "0x28",
          "logIndex": "0x3f",
          "removed": false
        }
      ],
      "logsBloom": "0x00000004000000000000000000000000000000000000000000000000000000000000000000000000000000000000000000000000000000000000000000000000000000000000000000000000000000000000000020000000000000010000000000000000000000800000000000000000000000000000000800000000000800000000000000000000000000000000404000000000000000000000000000000000000000000000000000000000000000020000000000000000001000000000000000000000000000000000000020000000000000000000000100000000000000000400000000080000000000000040000000000000000000000000000000000000",
      "type": "0x2",
      "transactionHash": "0x86adff08f32875f15c6a4ec2e20ac434cf9bd3f7d8895d85f46a133c35e4347d",
      "transactionIndex": "0x28",
      "blockHash": "0x729408bc8ac9f3332e5cb630a366444269f6042a9d5d11e820aa760550c301a5",
      "blockNumber": "0x6c3142",
      "gasUsed": "0x1afd90",
      "effectiveGasPrice": "0xc2c2227",
      "from": "0xd06da0c205e15c6b6dc64f02bcca7e820146dd2c",
      "to": null,
      "contractAddress": "0xbeee3763d92ede4fb83d57e42231b085855d6e8a"
    },
    {
      "status": "0x1",
      "cumulativeGasUsed": "0xa21e76",
      "logs": [
        {
          "address": "0x612c46712a6411d16a34be988c6865124c4169c1",
          "topics": [
            "0xddf252ad1be2c89b69c2b068fc378daa952ba7f163c4a11628f55a4df523b3ef",
            "0x0000000000000000000000000000000000000000000000000000000000000000",
            "0x000000000000000000000000d06da0c205e15c6b6dc64f02bcca7e820146dd2c"
          ],
          "data": "0x000000000000000000000000000000000000000000000000000000174876e800",
          "blockHash": "0x729408bc8ac9f3332e5cb630a366444269f6042a9d5d11e820aa760550c301a5",
          "blockNumber": "0x6c3142",
          "transactionHash": "0xaa92e7485c5a57cfa4055f3720b74e05b5df1ca0587ccc8122e6d7078fc7b1c3",
          "transactionIndex": "0x2b",
          "logIndex": "0x45",
          "removed": false
        }
      ],
      "logsBloom": "0x00000000000000000000000000000000000000000000000000000000000000000000000000000000000000000000000000000000000000000000000000000000000000000000000000000008000000000000000000000000000000000000000000000000020000800002000000000800000000000000000000000010000000000000000000000010000000000000000000000000000000000000000000000000000000000000000000000000000000000000000000000000000000000000000000000002800000000000000020000000000000000000000000000000000020000000000000080000000000000000000000000000000000000000000000000000",
      "type": "0x2",
      "transactionHash": "0xaa92e7485c5a57cfa4055f3720b74e05b5df1ca0587ccc8122e6d7078fc7b1c3",
      "transactionIndex": "0x2b",
      "blockHash": "0x729408bc8ac9f3332e5cb630a366444269f6042a9d5d11e820aa760550c301a5",
      "blockNumber": "0x6c3142",
      "gasUsed": "0x87585",
      "effectiveGasPrice": "0xc2c2227",
      "from": "0xd06da0c205e15c6b6dc64f02bcca7e820146dd2c",
      "to": null,
      "contractAddress": "0x612c46712a6411d16a34be988c6865124c4169c1"
    },
    {
      "status": "0x1",
      "cumulativeGasUsed": "0xa32e22",
      "logs": [
        {
          "address": "0xbeee3763d92ede4fb83d57e42231b085855d6e8a",
          "topics": [
            "0x3db297c09c19972ba6a701ff373ab97e21ff1e4992e863c7abe44e9b2fed0847"
          ],
          "data": "0x000000000000000000000000612c46712a6411d16a34be988c6865124c4169c1",
          "blockHash": "0x729408bc8ac9f3332e5cb630a366444269f6042a9d5d11e820aa760550c301a5",
          "blockNumber": "0x6c3142",
          "transactionHash": "0x5e04d6fcdb68d91d4fefdd1b0475b75c48001f7e712582640337439aeb1f38b0",
          "transactionIndex": "0x2c",
          "logIndex": "0x46",
          "removed": false
        }
      ],
      "logsBloom": "0x00000000000000000000000000000000000000000000000000000000000000000008000000000000000000000000000000000000000000000000000000000000000000000000000000000000000000000000000000000000000000000000000000000000000000000000000000000000000000000000000000000000000800000000000000000000000000000000000000000000100000000000000000000000000000000000000000000000000000000000000000000000000000000000000000100000000000000000000000000000000000000000000000000000000000000400000000000000000000000040000000000000000000000000000000000000",
      "type": "0x2",
      "transactionHash": "0x5e04d6fcdb68d91d4fefdd1b0475b75c48001f7e712582640337439aeb1f38b0",
      "transactionIndex": "0x2c",
      "blockHash": "0x729408bc8ac9f3332e5cb630a366444269f6042a9d5d11e820aa760550c301a5",
      "blockNumber": "0x6c3142",
      "gasUsed": "0x10fac",
      "effectiveGasPrice": "0xc2c2227",
      "from": "0xd06da0c205e15c6b6dc64f02bcca7e820146dd2c",
      "to": "0xbeee3763d92ede4fb83d57e42231b085855d6e8a",
      "contractAddress": null
    },
    {
      "status": "0x1",
      "cumulativeGasUsed": "0xa3fb02",
      "logs": [
        {
          "address": "0xbeee3763d92ede4fb83d57e42231b085855d6e8a",
          "topics": [
            "0x3db297c09c19972ba6a701ff373ab97e21ff1e4992e863c7abe44e9b2fed0847"
          ],
          "data": "0x000000000000000000000000612c46712a6411d16a34be988c6865124c4169c1",
          "blockHash": "0x729408bc8ac9f3332e5cb630a366444269f6042a9d5d11e820aa760550c301a5",
          "blockNumber": "0x6c3142",
          "transactionHash": "0xf935085c48787c97299659f9dae41b395e3df9f2e50ec5151b86c2ef07e3e0d7",
          "transactionIndex": "0x2d",
          "logIndex": "0x47",
          "removed": false
        }
      ],
      "logsBloom": "0x00000000000000000000000000000000000000000000000000000000000000000008000000000000000000000000000000000000000000000000000000000000000000000000000000000000000000000000000000000000000000000000000000000000000000000000000000000000000000000000000000000000000800000000000000000000000000000000000000000000100000000000000000000000000000000000000000000000000000000000000000000000000000000000000000100000000000000000000000000000000000000000000000000000000000000400000000000000000000000040000000000000000000000000000000000000",
      "type": "0x2",
      "transactionHash": "0xf935085c48787c97299659f9dae41b395e3df9f2e50ec5151b86c2ef07e3e0d7",
      "transactionIndex": "0x2d",
      "blockHash": "0x729408bc8ac9f3332e5cb630a366444269f6042a9d5d11e820aa760550c301a5",
      "blockNumber": "0x6c3142",
      "gasUsed": "0xcce0",
      "effectiveGasPrice": "0xc2c2227",
      "from": "0xd06da0c205e15c6b6dc64f02bcca7e820146dd2c",
      "to": "0xbeee3763d92ede4fb83d57e42231b085855d6e8a",
      "contractAddress": null
    },
    {
      "status": "0x1",
      "cumulativeGasUsed": "0xa9ca57",
      "logs": [
        {
          "address": "0xbeee3763d92ede4fb83d57e42231b085855d6e8a",
          "topics": [
            "0x669f39ab213e57b6713284e071fe725a689c7a3e8f1a9ee32f2c0f30d132509d"
          ],
          "data": "0x0000000000000000000000000000000000000000000000000000000000000001000000000000000000000000000000000000000000000000000000000000010000000000000000000000000000000000000000000000000ad78ebc5ac620000000000000000000000000000000000000000000000000000c08de6fcb28b8000000000000000000000000000000000000000000000000000000000000000000020000000000000000000000000000000000000000000000000000000067392c9c00000000000000000000000000000000000000000000000000000000673cdacc000000000000000000000000612c46712a6411d16a34be988c6865124c4169c1000000000000000000000000000000000000000000000000000000000000000b456e7a6f20637570202332000000000000000000000000000000000000000000",
          "blockHash": "0x729408bc8ac9f3332e5cb630a366444269f6042a9d5d11e820aa760550c301a5",
          "blockNumber": "0x6c3142",
          "transactionHash": "0x2080c65fd86bd501456723a6a84b126ffa13a27d74c6713be5fe44040d3204ec",
          "transactionIndex": "0x2f",
          "logIndex": "0x48",
          "removed": false
        },
        {
          "address": "0xbeee3763d92ede4fb83d57e42231b085855d6e8a",
          "topics": [
            "0x87969bc7faf902221a147b95ceba76e011c5efb0339a0a8ee7a2bb82d9cfbbd6"
          ],
          "data": "0x0000000000000000000000000000000000000000000000000000000000000001000000000000000000000000d06da0c205e15c6b6dc64f02bcca7e820146dd2c",
          "blockHash": "0x729408bc8ac9f3332e5cb630a366444269f6042a9d5d11e820aa760550c301a5",
          "blockNumber": "0x6c3142",
          "transactionHash": "0x2080c65fd86bd501456723a6a84b126ffa13a27d74c6713be5fe44040d3204ec",
          "transactionIndex": "0x2f",
          "logIndex": "0x49",
          "removed": false
        }
      ],
      "logsBloom": "0x00000000000000000000000000010000000000000000000000000000000000000000000000000000000000000000000000000000000000000000000080000000000000000000000000000000000000000000000000000000800000000000000000000000000000000000000000000000000000100000000000000000000800000000000000000000000000000000000000000000000000000000000000000000000000000000000000000000000000000000000000000000000000000000000000000000000000000000020000000000000008000000000000000000000000000400000000000000000000000040000000000000000000000000000000000000",
      "type": "0x2",
      "transactionHash": "0x2080c65fd86bd501456723a6a84b126ffa13a27d74c6713be5fe44040d3204ec",
      "transactionIndex": "0x2f",
      "blockHash": "0x729408bc8ac9f3332e5cb630a366444269f6042a9d5d11e820aa760550c301a5",
      "blockNumber": "0x6c3142",
      "gasUsed": "0x556ce",
      "effectiveGasPrice": "0xc2c2227",
      "from": "0xd06da0c205e15c6b6dc64f02bcca7e820146dd2c",
      "to": "0xbeee3763d92ede4fb83d57e42231b085855d6e8a",
      "contractAddress": null
    },
    {
      "status": "0x1",
      "cumulativeGasUsed": "0xaea5ac",
      "logs": [
        {
          "address": "0xbeee3763d92ede4fb83d57e42231b085855d6e8a",
          "topics": [
            "0x669f39ab213e57b6713284e071fe725a689c7a3e8f1a9ee32f2c0f30d132509d"
          ],
          "data": "0x0000000000000000000000000000000000000000000000000000000000000002000000000000000000000000000000000000000000000000000000000000010000000000000000000000000000000000000000000000001043561a88293000000000000000000000000000000000000000000000000000120d4da7b0bd140000000000000000000000000000000000000000000000000000000000000000000300000000000000000000000000000000000000000000000000000000673a37cc00000000000000000000000000000000000000000000000000000000673b894c000000000000000000000000612c46712a6411d16a34be988c6865124c4169c1000000000000000000000000000000000000000000000000000000000000000b456e7a6f20637570202333000000000000000000000000000000000000000000",
          "blockHash": "0x729408bc8ac9f3332e5cb630a366444269f6042a9d5d11e820aa760550c301a5",
          "blockNumber": "0x6c3142",
          "transactionHash": "0x8351b6f31e70b63265d8900b6f77d0724e99e30b6a0a5fd0ac1834e30dbeb469",
          "transactionIndex": "0x30",
          "logIndex": "0x4a",
          "removed": false
        },
        {
          "address": "0xbeee3763d92ede4fb83d57e42231b085855d6e8a",
          "topics": [
            "0x87969bc7faf902221a147b95ceba76e011c5efb0339a0a8ee7a2bb82d9cfbbd6"
          ],
          "data": "0x0000000000000000000000000000000000000000000000000000000000000002000000000000000000000000d06da0c205e15c6b6dc64f02bcca7e820146dd2c",
          "blockHash": "0x729408bc8ac9f3332e5cb630a366444269f6042a9d5d11e820aa760550c301a5",
          "blockNumber": "0x6c3142",
          "transactionHash": "0x8351b6f31e70b63265d8900b6f77d0724e99e30b6a0a5fd0ac1834e30dbeb469",
          "transactionIndex": "0x30",
          "logIndex": "0x4b",
          "removed": false
        }
      ],
      "logsBloom": "0x00000000000000000000000000010000000000000000000000000000000000000000000000000000000000000000000000000000000000000000000080000000000000000000000000000000000000000000000000000000800000000000000000000000000000000000000000000000000000100000000000000000000800000000000000000000000000000000000000000000000000000000000000000000000000000000000000000000000000000000000000000000000000000000000000000000000000000000020000000000000008000000000000000000000000000400000000000000000000000040000000000000000000000000000000000000",
      "type": "0x2",
      "transactionHash": "0x8351b6f31e70b63265d8900b6f77d0724e99e30b6a0a5fd0ac1834e30dbeb469",
      "transactionIndex": "0x30",
      "blockHash": "0x729408bc8ac9f3332e5cb630a366444269f6042a9d5d11e820aa760550c301a5",
      "blockNumber": "0x6c3142",
      "gasUsed": "0x4db55",
      "effectiveGasPrice": "0xc2c2227",
      "from": "0xd06da0c205e15c6b6dc64f02bcca7e820146dd2c",
      "to": "0xbeee3763d92ede4fb83d57e42231b085855d6e8a",
      "contractAddress": null
    }
  ],
  "libraries": [],
  "pending": [],
  "returns": {},
  "timestamp": 1731782261,
  "chain": 11155111,
  "commit": "36505c8"
}